{
  "_format": "hh-sol-artifact-1",
  "contractName": "BattleRoyale",
  "sourceName": "contracts/index.sol",
  "abi": [
    {
      "inputs": [
        {
          "internalType": "uint256",
          "name": "_maxPlayers",
          "type": "uint256"
        }
      ],
      "stateMutability": "nonpayable",
      "type": "constructor"
    },
    {
      "inputs": [],
      "name": "ZamaProtocolUnsupported",
      "type": "error"
    },
    {
      "anonymous": false,
      "inputs": [],
      "name": "GameEnded",
      "type": "event"
    },
    {
      "anonymous": false,
      "inputs": [],
      "name": "GameStarted",
      "type": "event"
    },
    {
      "anonymous": false,
      "inputs": [
        {
          "indexed": true,
          "internalType": "address",
          "name": "winner",
          "type": "address"
        }
      ],
      "name": "GameWon",
      "type": "event"
    },
    {
      "anonymous": false,
      "inputs": [
        {
          "indexed": true,
          "internalType": "address",
          "name": "attacker",
          "type": "address"
        },
        {
          "indexed": true,
          "internalType": "address",
          "name": "target",
          "type": "address"
        }
      ],
      "name": "PlayerAttacked",
      "type": "event"
    },
    {
      "anonymous": false,
      "inputs": [
        {
          "indexed": true,
          "internalType": "address",
          "name": "player",
          "type": "address"
        }
      ],
      "name": "PlayerInDangerZone",
      "type": "event"
    },
    {
      "anonymous": false,
      "inputs": [
        {
          "indexed": true,
          "internalType": "address",
          "name": "player",
          "type": "address"
        }
      ],
      "name": "PlayerJoined",
      "type": "event"
    },
    {
      "anonymous": false,
      "inputs": [
        {
          "indexed": true,
          "internalType": "address",
          "name": "killer",
          "type": "address"
        },
        {
          "indexed": true,
          "internalType": "address",
          "name": "victim",
          "type": "address"
        }
      ],
      "name": "PlayerKilled",
      "type": "event"
    },
    {
      "anonymous": false,
      "inputs": [
        {
          "indexed": true,
          "internalType": "address",
          "name": "player",
          "type": "address"
        }
      ],
      "name": "PlayerMoved",
      "type": "event"
    },
    {
      "anonymous": false,
      "inputs": [
        {
          "indexed": false,
          "internalType": "uint8",
          "name": "newRadius",
          "type": "uint8"
        }
      ],
      "name": "ZoneShrank",
      "type": "event"
    },
    {
      "inputs": [],
      "name": "MAP_SIZE",
      "outputs": [
        {
          "internalType": "uint8",
          "name": "",
          "type": "uint8"
        }
      ],
      "stateMutability": "view",
      "type": "function"
    },
    {
      "inputs": [
        {
          "internalType": "address",
          "name": "target",
          "type": "address"
        }
      ],
      "name": "attackPlayer",
      "outputs": [],
      "stateMutability": "nonpayable",
      "type": "function"
    },
    {
      "inputs": [],
      "name": "checkVictoryCondition",
      "outputs": [],
      "stateMutability": "nonpayable",
      "type": "function"
    },
    {
      "inputs": [],
      "name": "confidentialProtocolId",
      "outputs": [
        {
          "internalType": "uint256",
          "name": "",
          "type": "uint256"
        }
      ],
      "stateMutability": "view",
      "type": "function"
    },
    {
      "inputs": [
        {
          "internalType": "address",
          "name": "_winner",
          "type": "address"
        }
      ],
      "name": "declareWinner",
      "outputs": [],
      "stateMutability": "nonpayable",
      "type": "function"
    },
    {
      "inputs": [],
      "name": "endGame",
      "outputs": [],
      "stateMutability": "nonpayable",
      "type": "function"
    },
    {
      "inputs": [
        {
          "internalType": "address",
          "name": "",
          "type": "address"
        }
      ],
      "name": "foundPlayerMap",
      "outputs": [
        {
          "internalType": "eaddress",
          "name": "",
          "type": "bytes32"
        }
      ],
      "stateMutability": "view",
      "type": "function"
    },
    {
      "inputs": [],
      "name": "gameActive",
      "outputs": [
        {
          "internalType": "bool",
          "name": "",
          "type": "bool"
        }
      ],
      "stateMutability": "view",
      "type": "function"
    },
    {
      "inputs": [],
      "name": "gameEnded",
      "outputs": [
        {
          "internalType": "bool",
          "name": "",
          "type": "bool"
        }
      ],
      "stateMutability": "view",
      "type": "function"
    },
    {
      "inputs": [],
      "name": "gameStartTime",
      "outputs": [
        {
          "internalType": "uint256",
          "name": "",
          "type": "uint256"
        }
      ],
      "stateMutability": "view",
      "type": "function"
    },
    {
      "inputs": [
        {
          "internalType": "address",
          "name": "user",
          "type": "address"
        }
      ],
      "name": "getFoundPlayer",
      "outputs": [
        {
          "internalType": "eaddress",
          "name": "",
          "type": "bytes32"
        }
      ],
      "stateMutability": "view",
      "type": "function"
    },
    {
      "inputs": [],
      "name": "getGameResult",
      "outputs": [
        {
          "internalType": "bool",
          "name": "",
          "type": "bool"
        },
        {
          "internalType": "address",
          "name": "",
          "type": "address"
        }
      ],
      "stateMutability": "view",
      "type": "function"
    },
    {
      "inputs": [],
      "name": "getGameState",
      "outputs": [
        {
          "internalType": "bool",
          "name": "",
          "type": "bool"
        },
        {
          "internalType": "uint256",
          "name": "",
          "type": "uint256"
        },
        {
          "internalType": "uint256",
          "name": "",
          "type": "uint256"
        }
      ],
      "stateMutability": "view",
      "type": "function"
    },
    {
      "inputs": [
        {
          "internalType": "uint256",
          "name": "index",
          "type": "uint256"
        }
      ],
      "name": "getPlayerByIndex",
      "outputs": [
        {
          "internalType": "address",
          "name": "",
          "type": "address"
        }
      ],
      "stateMutability": "view",
      "type": "function"
    },
    {
      "inputs": [
        {
          "internalType": "address",
          "name": "playerAddr",
          "type": "address"
        }
      ],
      "name": "getPlayerPosition",
      "outputs": [
        {
          "internalType": "euint8",
          "name": "",
          "type": "bytes32"
        },
        {
          "internalType": "euint8",
          "name": "",
          "type": "bytes32"
        }
      ],
      "stateMutability": "view",
      "type": "function"
    },
    {
      "inputs": [
        {
          "internalType": "address",
          "name": "playerAddr",
          "type": "address"
        }
      ],
      "name": "getPlayerStatus",
      "outputs": [
        {
          "internalType": "bool",
          "name": "",
          "type": "bool"
        },
        {
          "internalType": "bool",
          "name": "",
          "type": "bool"
        }
      ],
      "stateMutability": "view",
      "type": "function"
    },
    {
      "inputs": [],
      "name": "getPlayersList",
      "outputs": [
        {
          "internalType": "address[]",
          "name": "",
          "type": "address[]"
        }
      ],
      "stateMutability": "view",
      "type": "function"
    },
    {
      "inputs": [],
      "name": "getSafeZoneInfo",
      "outputs": [
        {
          "internalType": "uint8",
          "name": "",
          "type": "uint8"
        },
        {
          "internalType": "euint8",
          "name": "",
          "type": "bytes32"
        },
        {
          "internalType": "euint8",
          "name": "",
          "type": "bytes32"
        },
        {
          "internalType": "uint256",
          "name": "",
          "type": "uint256"
        },
        {
          "internalType": "uint256",
          "name": "",
          "type": "uint256"
        }
      ],
      "stateMutability": "view",
      "type": "function"
    },
    {
      "inputs": [],
      "name": "getTotalPlayers",
      "outputs": [
        {
          "internalType": "uint256",
          "name": "",
          "type": "uint256"
        }
      ],
      "stateMutability": "view",
      "type": "function"
    },
    {
      "inputs": [
        {
          "internalType": "address",
          "name": "playerAddr",
          "type": "address"
        }
      ],
      "name": "hasPlayerJoined",
      "outputs": [
        {
          "internalType": "bool",
          "name": "",
          "type": "bool"
        }
      ],
      "stateMutability": "view",
      "type": "function"
    },
    {
      "inputs": [],
      "name": "joinGame",
      "outputs": [],
      "stateMutability": "nonpayable",
      "type": "function"
    },
    {
      "inputs": [],
      "name": "lastZoneShrink",
      "outputs": [
        {
          "internalType": "uint256",
          "name": "",
          "type": "uint256"
        }
      ],
      "stateMutability": "view",
      "type": "function"
    },
    {
      "inputs": [],
      "name": "maxPlayers",
      "outputs": [
        {
          "internalType": "uint256",
          "name": "",
          "type": "uint256"
        }
      ],
      "stateMutability": "view",
      "type": "function"
    },
    {
      "inputs": [
        {
          "internalType": "externalEuint8",
          "name": "encryptedDirection",
          "type": "bytes32"
        },
        {
          "internalType": "bytes",
          "name": "inputProof",
          "type": "bytes"
        }
      ],
      "name": "movePlayer",
      "outputs": [],
      "stateMutability": "nonpayable",
      "type": "function"
    },
    {
      "inputs": [
        {
          "internalType": "address",
          "name": "",
          "type": "address"
        }
      ],
      "name": "players",
      "outputs": [
        {
          "internalType": "euint8",
          "name": "x",
          "type": "bytes32"
        },
        {
          "internalType": "euint8",
          "name": "y",
          "type": "bytes32"
        },
        {
          "internalType": "bool",
          "name": "isAlive",
          "type": "bool"
        },
        {
          "internalType": "bool",
          "name": "hasJoined",
          "type": "bool"
        }
      ],
      "stateMutability": "view",
      "type": "function"
    },
    {
      "inputs": [
        {
          "internalType": "uint256",
          "name": "",
          "type": "uint256"
        }
      ],
      "name": "playersList",
      "outputs": [
        {
          "internalType": "address",
          "name": "",
          "type": "address"
        }
      ],
      "stateMutability": "view",
      "type": "function"
    },
    {
      "inputs": [],
      "name": "safeZoneCenterX",
      "outputs": [
        {
          "internalType": "euint8",
          "name": "",
          "type": "bytes32"
        }
      ],
      "stateMutability": "view",
      "type": "function"
    },
    {
      "inputs": [],
      "name": "safeZoneCenterY",
      "outputs": [
        {
          "internalType": "euint8",
          "name": "",
          "type": "bytes32"
        }
      ],
      "stateMutability": "view",
      "type": "function"
    },
    {
      "inputs": [],
      "name": "safeZoneRadius",
      "outputs": [
        {
          "internalType": "uint8",
          "name": "",
          "type": "uint8"
        }
      ],
      "stateMutability": "view",
      "type": "function"
    },
    {
      "inputs": [],
      "name": "shrinkZone",
      "outputs": [],
      "stateMutability": "nonpayable",
      "type": "function"
    },
    {
      "inputs": [],
      "name": "startGame",
      "outputs": [],
      "stateMutability": "nonpayable",
      "type": "function"
    },
    {
      "inputs": [],
      "name": "winner",
      "outputs": [
        {
          "internalType": "address",
          "name": "",
          "type": "address"
        }
      ],
      "stateMutability": "view",
      "type": "function"
    },
    {
      "inputs": [],
      "name": "zoneShrinkInterval",
      "outputs": [
        {
          "internalType": "uint256",
          "name": "",
          "type": "uint256"
        }
      ],
      "stateMutability": "view",
      "type": "function"
    }
  ],
  "bytecode": "0x608060405234801562000010575f80fd5b50604051620029d2380380620029d283398101604081905262000033916200040d565b620000c6620000416200015c565b80515f80516020620029b283398151915280546001600160a01b03199081166001600160a01b039384161790915560208301515f80516020620029928339815191528054831691841691909117905560408301517f9e7b61f58c47dc699ac88507c4f5bb9f121c03808c5676a8078fe583e46497028054909216921691909117905550565b60048190556003805460ff19169055620000e36002600a62000425565b6005805460ff92909216600160a81b0260ff60a81b199092169190911790556200011a620001146002600a62000425565b620002ce565b6006556200012f620001146002600a62000425565b60075560786009556006546200014590620002e5565b506007546200015490620002e5565b505062000484565b604080516060810182525f808252602082018190529181019190915246600103620001b6575060408051606080820183525f8083526020808401829052928401819052835191820184528082529181018290529182015290565b4662aa36a70362000236575060408051606080820183525f8083526020808401829052928401528251908101835273f0ffdc93b7e186bc2f8cb3daa75d86d1930a433d81527392c920834ec8941d2c77d188936e1f7a6f49c1279181019190915273be0e383937d564d7ff0bc3b46c51f0bf8d5c311a9181019190915290565b46617a6903620002b5575060408051606080820183525f808352602080840182905292840152825190810183527350157cffd6bbfa2dece204a89ec419c23ef5755d815273e3a9105a3a932253a70f126eb1e3b589c643dd249181019190915273901f8942346f7ab3a01f6d7613119bca447bb0309181019190915290565b6040516373cac13b60e01b815260040160405180910390fd5b5f620002df60ff83166002620002f6565b92915050565b5f620002f2823062000394565b5090565b5f805160206200299283398151915254604051639cd07acb60e01b81525f915f80516020620029b2833981519152916001600160a01b0390911690639cd07acb9062000349908790879060040162000453565b6020604051808303815f875af115801562000366573d5f803e3d5ffd5b505050506040513d601f19601f820116820180604052508101906200038c91906200040d565b949350505050565b5f5f80516020620029b28339815191528054604051635ca4b5b160e11b8152600481018690526001600160a01b03858116602483015292935091169063b9496b62906044015f604051808303815f87803b158015620003f1575f80fd5b505af115801562000404573d5f803e3d5ffd5b50505050505050565b5f602082840312156200041e575f80fd5b5051919050565b5f60ff8316806200044457634e487b7160e01b5f52601260045260245ffd5b8060ff84160491505092915050565b82815260408101605483106200047757634e487b7160e01b5f52602160045260245ffd5b8260208301529392505050565b61250080620004925f395ff3fe608060405234801561000f575f80fd5b50600436106101f2575f3560e01c80637643d46f11610114578063d4f77b1c116100a9578063dfbf53ae11610079578063dfbf53ae146104b6578063e2eb41ff146104c9578063e763cf821461052b578063f020044f14610533578063f48f0d8d14610540575f80fd5b8063d4f77b1c1461048b578063d65ab5f214610493578063da71337e1461049b578063db33f4f8146104a3575f80fd5b8063b3fb14ad116100e4578063b3fb14ad146103fa578063b4ba477014610425578063b60f953f14610459578063b7d0628b14610461575f80fd5b80637643d46f146103a45780637f3aa2f3146103ad5780638927b030146103d3578063aa8110c9146103db575f80fd5b80634529cae71161018a57806364894ade1161015a57806364894ade146103405780636989aeff146103495780636cbc2ded146103715780637319b43e14610379575f80fd5b80634529cae71461031357806347fedddc1461031b5780634c2412a2146103245780635dc22cce1461032d575f80fd5b806329c983ec116101c557806329c983ec146102b95780632f6fe396146102ce5780633b5c1d02146102e25780633f831810146102eb575f80fd5b80630252b995146101f657806306642500146102125780630f45db9114610227578063144b6ae114610276575b5f80fd5b6101ff60025481565b6040519081526020015b60405180910390f35b610225610220366004612216565b610553565b005b61025f61023536600461228b565b6001600160a01b03165f9081526020819052604090206002015460ff808216926101009092041690565b604080519215158352901515602083015201610209565b6102a961028436600461228b565b6001600160a01b03165f90815260208190526040902060020154610100900460ff1690565b6040519015158152602001610209565b6102c161083f565b60405161020991906122b1565b6005546102a990600160a01b900460ff1681565b6101ff60095481565b6102fe6102f936600461228b565b61089f565b60408051928352602083019190915201610209565b6001546101ff565b6101ff60075481565b6101ff60045481565b61022561033b36600461228b565b610928565b6101ff60085481565b6101ff61035736600461228b565b6001600160a01b03165f908152600a602052604090205490565b610225610be9565b61038c6103873660046122fd565b610ca5565b6040516001600160a01b039091168152602001610209565b6101ff60065481565b6005546103c190600160a81b900460ff1681565b60405160ff9091168152602001610209565b6101ff610ccd565b6101ff6103e936600461228b565b600a6020525f908152604090205481565b6005546040805160ff600160a01b840416151581526001600160a01b03909216602083015201610209565b61042d610cdb565b6040805160ff90961686526020860194909452928401919091526060830152608082015260a001610209565b610225610d1a565b6003546002546001546040805160ff90941615158452602084019290925290820152606001610209565b610225610d83565b610225610f6c565b610225611045565b6102256104b136600461228b565b61134e565b60055461038c906001600160a01b031681565b6105036104d736600461228b565b5f6020819052908152604090208054600182015460029092015490919060ff8082169161010090041684565b6040805194855260208501939093529015159183019190915215156060820152608001610209565b6103c1600a81565b6003546102a99060ff1681565b61038c61054e3660046122fd565b6114a5565b5f6002541161057d5760405162461bcd60e51b815260040161057490612314565b60405180910390fd5b335f90815260208190526040902060020154610100900460ff166105d05760405162461bcd60e51b815260206004820152600a602482015269139bdd081a9bda5b995960b21b6044820152606401610574565b335f9081526020819052604090206002015460ff166106225760405162461bcd60e51b815260206004820152600e60248201526d141b185e595c881a5cc81919585960921b6044820152606401610574565b5f6106628484848080601f0160208091040260200160405190810160405280939291908181526020018383808284375f9201919091525061151b92505050565b335f90815260208190526040812080546001820154939450909290918290829061068c8782611531565b90505f6106ad61069c865f611552565b6106a7876001611573565b87611594565b90506106ba828285611594565b92505f6106c8896001611531565b90505f6106f46106e3896106de6001600a612351565b6115dd565b6106ee8a60016115fe565b8a611594565b9050610701828288611594565b95505f61070f8b6002611531565b90505f6107366107258a6106de6001600a612351565b6107308b60016115fe565b8b611594565b9050610743828289611594565b96505f6107518d6003611531565b90505f6107726107618d5f611552565b61076c8e6001611573565b8e611594565b905061077f82828c611594565b808e5560018e018a905599506107948a61161f565b508c546107a1903361162e565b506107af8d6001015461161f565b506107be8d600101543361162e565b50604080516080810182528e54815260018f0154602082015260028f015460ff80821615159383019390935261010090049091161515606082015261080290611640565b60405133907f625ba646f05ab036edd0f8d88cd3926fe26722c0b6717841fcb9334334a4d095905f90a25050505050505050505050505050505050565b6060600180548060200260200160405190810160405280929190818152602001828054801561089557602002820191905f5260205f20905b81546001600160a01b03168152600190910190602001808311610877575b5050505050905090565b6001600160a01b0381165f908152602081905260408120600201548190610100900460ff166109045760405162461bcd60e51b8152602060048201526011602482015270141b185e595c881b9bdd081a9bda5b9959607a1b6044820152606401610574565b50506001600160a01b03165f90815260208190526040902080546001909101549091565b5f600254116109495760405162461bcd60e51b815260040161057490612314565b335f90815260208190526040902060020154610100900460ff1661099c5760405162461bcd60e51b815260206004820152600a602482015269139bdd081a9bda5b995960b21b6044820152606401610574565b6001600160a01b0381165f90815260208190526040902060020154610100900460ff166109ff5760405162461bcd60e51b815260206004820152601160248201527015185c99d95d081b9bdd081a9bda5b9959607a1b6044820152606401610574565b336001600160a01b03821603610a505760405162461bcd60e51b815260206004820152601660248201527521b0b73737ba1030ba3a30b1b5903cb7bab939b2b63360511b6044820152606401610574565b335f908152602081905260408082206001600160a01b03841683529120600282015460ff16610ab45760405162461bcd60e51b815260206004820152601060248201526f105d1d1858dad95c881a5cc81919585960821b6044820152606401610574565b600281015460ff16610b015760405162461bcd60e51b815260206004820152601660248201527515185c99d95d081a5cc8185b1c9958591e481919585960521b6044820152606401610574565b5f610b36610b15845f0154845f0154611778565b84548454610b2391906117a6565b84548654610b3191906117a6565b611594565b90505f610b72610b4e85600101548560010154611778565b610b60866001015486600101546117a6565b610b31866001015488600101546117a6565b90505f610b808360016117d4565b90505f610b8e8360016117d4565b90505f610b9b83836117f5565b60028701805460ff191690556040519091506001600160a01b0389169033907f4f11ec00c3efd9db10dc0b2bea38a650da95a6d73ede9b7312f41df861f8836f905f90a35050505050505050565b5f60025411610c0a5760405162461bcd60e51b815260040161057490612314565b600554600160a01b900460ff1615610c595760405162461bcd60e51b815260206004820152601260248201527111d85b5948185b1c9958591e48195b99195960721b6044820152606401610574565b6003805460ff191690556005805460ff60a01b1916600160a01b1790555f60028190556040517f1084d47e99647565312e58bba004b0fc3088c683fa22f3925f1cf5fb095540299190a1565b60018181548110610cb4575f80fd5b5f918252602090912001546001600160a01b0316905081565b5f610cd6611823565b905090565b5f805f805f600560159054906101000a900460ff16600654600754600854600954600854610d09919061236a565b945094509450945094509091929394565b5f600254118015610d355750600554600160a01b900460ff16155b610d815760405162461bcd60e51b815260206004820181905260248201527f47616d65206e6f7420616374697665206f7220616c726561647920656e6465646044820152606401610574565b565b60045460015410610dc55760405162461bcd60e51b815260206004820152600c60248201526b11d85b59481a5cc8199d5b1b60a21b6044820152606401610574565b335f90815260208190526040902060020154610100900460ff1615610e1d5760405162461bcd60e51b815260206004820152600e60248201526d105b1c9958591e481a9bda5b995960921b6044820152606401610574565b5f610e30610e29611857565b600a611862565b90505f610e3e610e29611857565b604080516080810182528481526020808201848152600183850181815260608501828152335f818152958690529685209551865592518583015551600285018054935115156101000261ff00199215159290921661ffff19909416939093171790915580548082019091557fb10e2d527612073b26eecdfd717e6a320cf44b4afac2b0732d9fcbe2b7fa0cf60180546001600160a01b031916841790559190915254909150610eec9061161f565b50335f81815260208190526040902054610f059161162e565b50335f90815260208190526040902060010154610f219061161f565b50335f81815260208190526040902060010154610f3d9161162e565b5060405133907f31e760aa525306aba638a784082a013b6a1cc0a9a1789f3f22281c0453b10b1f905f90a25050565b60015460021115610fbf5760405162461bcd60e51b815260206004820152601760248201527f4e656564206174206c65617374203220706c61796572730000000000000000006044820152606401610574565b600254156110055760405162461bcd60e51b815260206004820152601360248201527247616d6520616c72656164792061637469766560681b6044820152606401610574565b6003805460ff191660011790554260028190556008556040517f762f260439bb4be3ef6e4dc2786e2e7bd187d3d80b79057d7a424fe98563e335905f90a1565b5f600254116110665760405162461bcd60e51b815260040161057490612314565b600954600854611076919061236a565b4210156110bb5760405162461bcd60e51b8152602060048201526013602482015272546f6f206561726c7920746f20736872696e6b60681b6044820152606401610574565b6005546001600160a81b90910460ff16116111185760405162461bcd60e51b815260206004820152601a60248201527f5a6f6e652063616e6e6f7420736872696e6b20667572746865720000000000006044820152606401610574565b6001600560158282829054906101000a900460ff166111379190612351565b82546101009290920a60ff81810219909316918316021790915542600855600554600192506002600160a81b9091049091161115611303575f61118261117b611857565b6003611862565b90505f61119061117b611857565b90505f61119e836001611573565b90505f6111ac836001611573565b90506111ba60065483611881565b6006556007546111ca9082611881565b600755600654600554611208916111ea91600160a81b900460ff166115dd565b60055461120090600160a81b900460ff166118af565b600654611594565b6006819055600554611260916112329161122d90600160a81b900460ff16600a612351565b6118be565b6005546112009060019061125190600160a81b900460ff16600a612351565b61125b9190612351565b6118af565b60065560075460055461129e9161128091600160a81b900460ff166115dd565b60055461129690600160a81b900460ff166118af565b600754611594565b60078190556005546112e2916112c39161122d90600160a81b900460ff16600a612351565b6005546112969060019061125190600160a81b900460ff16600a612351565b6007556006546112f19061161f565b506112fd60075461161f565b50505050505b600554604051600160a81b90910460ff1681527f900630d61cf537731d26001204e4ac15e7f47ad26c0d2ea17e418c0fe8b55ead9060200160405180910390a161134b6118df565b50565b5f6002541180156113695750600554600160a01b900460ff16155b6113b55760405162461bcd60e51b815260206004820181905260248201527f47616d65206e6f7420616374697665206f7220616c726561647920656e6465646044820152606401610574565b6001600160a01b0381165f90815260208190526040902060020154610100900460ff166114245760405162461bcd60e51b815260206004820152601d60248201527f57696e6e6572206d75737420626520612076616c696420706c617965720000006044820152606401610574565b600580546001600160a81b0319166001600160a01b038316908117600160a01b179091556003805460ff191690556040517f78b3193cf31372e77b1f3045481681f86e18e346de12ae7f1ecc322ff0adf1a4905f90a26040517f1084d47e99647565312e58bba004b0fc3088c683fa22f3925f1cf5fb09554029905f90a150565b6001545f9082106114ee5760405162461bcd60e51b8152602060048201526013602482015272496e646578206f7574206f6620626f756e647360681b6044820152606401610574565b600182815481106115015761150161237d565b5f918252602090912001546001600160a01b031692915050565b5f61152883836002611a00565b90505b92915050565b5f82611543576115405f6118af565b92505b6115288360ff84166001611afa565b5f82611564576115615f6118af565b92505b6115288360ff84166001611ba7565b5f82611585576115825f6118af565b92505b6115288360ff84166001611c0a565b5f836115a6576115a35f611c6d565b93505b826115b7576115b45f6118af565b92505b816115c8576115c55f6118af565b91505b6115d3848484611c88565b90505b9392505050565b5f826115ef576115ec5f6118af565b92505b6115288360ff84166001611d29565b5f826116105761160d5f6118af565b92505b6115288360ff84166001611d8c565b5f61162a8230611def565b5090565b5f6116398383611def565b5090919050565b5f5b600154811015611774575f600182815481106116605761166061237d565b5f918252602090912001546001600160a01b03169050338103611683575061176c565b6001600160a01b0381165f9081526020818152604080832081516080810183528154808252600183015494820185905260029092015460ff808216151594830194909452610100900490921615156060830152865191939092916116e79084611e65565b90505f6116f8886020015184611e65565b90505f61171b8361170d8461170d6001611c6d565b6117165f611c6d565b611e93565b90505f6117398261172b8a611ec4565b6117345f611ec4565b611ed9565b335f818152600a6020526040902082905590915061175890829061162e565b506117628161161f565b5050505050505050505b600101611642565b5050565b5f8261178a576117875f6118af565b92505b8161179b576117985f6118af565b91505b61152883835f611f0a565b5f826117b8576117b55f6118af565b92505b816117c9576117c65f6118af565b91505b61152883835f611c0a565b5f826117e6576117e35f6118af565b92505b6115288360ff84166001611f6d565b5f82611807576118045f611c6d565b92505b81611818576118155f611c6d565b91505b61152883835f611fd0565b5f466001036118325750600190565b4662aa36a703611843575061271190565b46617a690361185257505f1990565b505f90565b5f610cd66002612033565b5f82611874576118715f6118af565b92505b6115288360ff84166120c0565b5f82611893576118905f6118af565b92505b816118a4576118a15f6118af565b91505b61152883835f611d8c565b5f61152b8260ff166002612115565b5f826118d0576118cd5f6118af565b92505b6115288360ff84166001611f0a565b600a5f5b6001548110156119f7575f600182815481106119015761190161237d565b5f9182526020808320909101546001600160a01b03168083529082905260408220805460018201546006549395509193909261195a90611942908590611778565b61194e856006546117a6565b610b31600654876117a6565b90505f61198461196c84600754611778565b611978856007546117a6565b610b31600754876117a6565b90505f6119918383611881565b90505f6119ad82600560159054906101000a900460ff16611552565b6040519091506001600160a01b038916907f59056dd63a429b50394c12b8d24cfa02dd10e8b1db49e571ffd4d777a701606a905f90a25050600190960195506118e3945050505050565b5061134b6121ac565b5f8051602061248b8339815191525460405163045fc19560e11b81525f915f805160206124ab833981519152916001600160a01b03909116906308bf832a90611a539088903390899089906004016123b1565b6020604051808303815f875af1158015611a6f573d5f803e3d5ffd5b505050506040513d601f19601f82011682018060405250810190611a939190612419565b8154604051630f8e573b60e21b8152600481018390523360248201529193506001600160a01b031690633e395cec906044015f604051808303815f87803b158015611adc575f80fd5b505af1158015611aee573d5f803e3d5ffd5b50505050509392505050565b5f808215611b0d5750600160f81b611b10565b505f5b5f8051602061248b8339815191525460405163f77f3f1d60e01b81525f805160206124ab833981519152916001600160a01b03169063f77f3f1d90611b5d90899089908790600401612430565b6020604051808303815f875af1158015611b79573d5f803e3d5ffd5b505050506040513d601f19601f82011682018060405250810190611b9d9190612419565b9695505050505050565b5f808215611bba5750600160f81b611bbd565b505f5b5f8051602061248b833981519152546040516385362ee760e01b81525f805160206124ab833981519152916001600160a01b0316906385362ee790611b5d90899089908790600401612430565b5f808215611c1d5750600160f81b611c20565b505f5b5f8051602061248b833981519152546040516303056db360e31b81525f805160206124ab833981519152916001600160a01b03169063182b6d9890611b5d90899089908790600401612430565b5f61152b82611c7c575f611c7f565b60015b60ff165f612115565b5f8051602061248b83398151915254604051637702dcff60e01b81526004810185905260248101849052604481018390525f915f805160206124ab833981519152916001600160a01b0390911690637702dcff906064015b6020604051808303815f875af1158015611cfc573d5f803e3d5ffd5b505050506040513d601f19601f82011682018060405250810190611d209190612419565b95945050505050565b5f808215611d3c5750600160f81b611d3f565b505f5b5f8051602061248b83398151915254604051637210768160e01b81525f805160206124ab833981519152916001600160a01b031690637210768190611b5d90899089908790600401612430565b5f808215611d9f5750600160f81b611da2565b505f5b5f8051602061248b8339815191525460405163022f65e760e31b81525f805160206124ab833981519152916001600160a01b03169063117b2f3890611b5d90899089908790600401612430565b5f5f805160206124ab8339815191528054604051635ca4b5b160e11b8152600481018690526001600160a01b03858116602483015292935091169063b9496b62906044015f604051808303815f87803b158015611e4a575f80fd5b505af1158015611e5c573d5f803e3d5ffd5b50505050505050565b5f82611e7757611e745f6118af565b92505b81611e8857611e855f6118af565b91505b61152883835f611afa565b5f83611ea557611ea25f611c6d565b93505b82611eb657611eb35f611c6d565b92505b816115c8576115c55f611c6d565b5f61152b826001600160a01b03166007612115565b5f83611eeb57611ee85f611c6d565b93505b82611efc57611ef95f611ec4565b92505b816115c8576115c55f611ec4565b5f808215611f1d5750600160f81b611f20565b505f5b5f8051602061248b83398151915254604051631391547f60e01b81525f805160206124ab833981519152916001600160a01b031690631391547f90611b5d90899089908790600401612430565b5f808215611f805750600160f81b611f83565b505f5b5f8051602061248b83398151915254604051631d44e90160e21b81525f805160206124ab833981519152916001600160a01b031690637513a40490611b5d90899089908790600401612430565b5f808215611fe35750600160f81b611fe6565b505f5b5f8051602061248b8339815191525460405163d99882d560e01b81525f805160206124ab833981519152916001600160a01b03169063d99882d590611b5d90899089908790600401612430565b5f8051602061248b83398151915254604051636baeb74560e11b81525f915f805160206124ab833981519152916001600160a01b039091169063d75d6e8a90612080908690600401612450565b6020604051808303815f875af115801561209c573d5f803e3d5ffd5b505050506040513d601f19601f820116820180604052508101906115d69190612419565b5f8051602061248b833981519152546040516367a68c5560e11b81525f91600160f81b915f805160206124ab833981519152916001600160a01b03169063cf4d18aa90611ce090889088908790600401612430565b5f8051602061248b83398151915254604051639cd07acb60e01b81525f915f805160206124ab833981519152916001600160a01b0390911690639cd07acb90612164908790879060040161245e565b6020604051808303815f875af1158015612180573d5f803e3d5ffd5b505050506040513d601f19601f820116820180604052508101906121a49190612419565b949350505050565b600554600160a01b900460ff16156121c057565b5f805f5b600154811015612211575f600182815481106121e2576121e261237d565b5f918252602090912001546001600160a01b031690508261220281612472565b919450909250506001016121c4565b505050565b5f805f60408486031215612228575f80fd5b83359250602084013567ffffffffffffffff80821115612246575f80fd5b818601915086601f830112612259575f80fd5b813581811115612267575f80fd5b876020828501011115612278575f80fd5b6020830194508093505050509250925092565b5f6020828403121561229b575f80fd5b81356001600160a01b03811681146115d6575f80fd5b602080825282518282018190525f9190848201906040850190845b818110156122f15783516001600160a01b0316835292840192918401916001016122cc565b50909695505050505050565b5f6020828403121561230d575f80fd5b5035919050565b6020808252600f908201526e47616d65206e6f742061637469766560881b604082015260600190565b634e487b7160e01b5f52601160045260245ffd5b60ff828116828216039081111561152b5761152b61233d565b8082018082111561152b5761152b61233d565b634e487b7160e01b5f52603260045260245ffd5b605481106123ad57634e487b7160e01b5f52602160045260245ffd5b9052565b8481525f602060018060a01b03861660208401526080604084015284518060808501525f5b818110156123f25786810183015185820160a0015282016123d6565b505f60a0828601015260a0601f19601f83011685010192505050611d206060830184612391565b5f60208284031215612429575f80fd5b5051919050565b92835260208301919091526001600160f81b031916604082015260600190565b6020810161152b8284612391565b828152604081016115d66020830184612391565b5f600182016124835761248361233d565b506001019056fe9e7b61f58c47dc699ac88507c4f5bb9f121c03808c5676a8078fe583e46497019e7b61f58c47dc699ac88507c4f5bb9f121c03808c5676a8078fe583e4649700a26469706673582212200eeb91e9ce0d2b0579d24d7818bd2c8fb26871190b24cda196f71cf34a6c229564736f6c634300081800339e7b61f58c47dc699ac88507c4f5bb9f121c03808c5676a8078fe583e46497019e7b61f58c47dc699ac88507c4f5bb9f121c03808c5676a8078fe583e4649700",
  "linkReferences": {},
  "deployedLinkReferences": {}
}